:020000040800F2
:1000000000280020F9010008490200084902000800
:1000100049020008490200084902000800000000E7
:10002000000000000000000000000000490200087D
:1000300049020008000000004902000849020008C7
:100040004902000849020008490200084902000864
:100050004902000849020008490200084902000854
:100060004902000849020008490200084902000844
:100070004902000849020008490200084902000834
:100080004902000849020008490200084902000824
:100090004902000849020008490200084902000814
:1000A0004902000849020008490200084902000804
:1000B00049020008490200084902000849020008F4
:1000C00049020008490200084902000849020008E4
:1000D00049020008490200084902000849020008D4
:1000E0004902000849020008000000004902000817
:1000F00049020008490200084902000849020008B4
:1001000049020008490200084902000849020008A3
:100110004902000849020008490200084902000893
:100120004902000849020008490200084902000883
:1001300010B5054C237833B9044B13B10448AFF321
:1001400000800123237010BD00000020000000008B
:100150009402000808B5034B1BB103490348AFF3F1
:10016000008008BD00000000040000209402000888
:1001700080B483B000AF1D4B1B681C4A43F00403DE
:1001800013601B4B1B681A4A23F470031360184B4F
:100190001B68174A43F400131360164B1B68154B7A
:1001A00000221A60134B1B68124A43F40053136079
:1001B00000237B6002E07B6801337B607B6841F257
:1001C00087329342F7DD0B4B1B680A4A23F4005336
:1001D000136000237B6002E07B6801337B607B68F7
:1001E00041F287329342F7DDD7E700BF1810024093
:1001F000040801400C0801400D488546AFF300801B
:100200000C480D490D4A002302E0D458C450043371
:10021000C4188C42F9D30A4A0A4C002301E0136047
:100220000432A242FBD300F011F8FFF7A1FFFEE772
:10023000002800200000002000000020B402000878
:10024000000000201C000020FEE7000070B5002622
:100250000C4D0D4C641BA410A64209D100F01AF8F5
:1002600000260A4D0A4C641BA410A64205D170BD9D
:1002700055F8043B98470136EEE755F8043B98479C
:100280000136F2E7AC020008AC020008AC0200083C
:10029000B0020008F8B500BFF8BC08BC9E46704725
:0C02A000F8B500BFF8BC08BC9E467047D3
:0402AC0055010008F0
:0402B0003101000810
:04000005080001F9F5
:00000001FF
