:020000040800F2
:1000000000280020B10100080102000801020008D8
:1000100001020008010200080102000800000000BF
:1000200000000000000000000000000001020008C5
:10003000010200080000000001020008010200089F
:100040000102000801020008010200080102000884
:100050000102000801020008010200080102000874
:100060000102000801020008010200080102000864
:100070000102000801020008010200080102000854
:100080000102000801020008010200080102000844
:100090000102000801020008010200080102000834
:1000A0000102000801020008010200080102000824
:1000B0000102000801020008010200080102000814
:1000C0000102000801020008010200080102000804
:1000D00001020008010200080102000801020008F4
:1000E00001020008010200080000000001020008EF
:1000F00001020008010200080102000801020008D4
:1001000001020008010200080102000801020008C3
:1001100001020008010200080102000801020008B3
:1001200001020008010200080102000801020008A3
:1001300010B5054C237833B9044B13B10448AFF321
:1001400000800123237010BD00000020000000008B
:100150004C02000808B5034B1BB103490348AFF339
:10016000008008BD00000000040000204C020008D0
:1001700080B400AF0B4B1B680A4A43F004031360C2
:10018000094B1B68084A23F470031360064B1B6875
:10019000054A43F400131360044B044A1B681360C0
:1001A000FAE700BF18100240040801400C080140A3
:1001B0000D488546AFF300800C480D490D4A0023D9
:1001C00002E0D458C4500433C4188C42F9D30A4A0C
:1001D0000A4C002301E013600432A242FBD300F07A
:1001E00011F8FFF7C5FFFEE70028002000000020FF
:1001F000000000206C020008000000201C0000200D
:10020000FEE7000070B500260C4D0D4C641BA410D9
:10021000A64209D100F01AF800260A4D0A4C641BC8
:10022000A410A64205D170BD55F8043B984701368D
:10023000EEE755F8043B98470136F2E76402000800
:10024000640200086402000868020008F8B500BFF4
:10025000F8BC08BC9E467047F8B500BFF8BC08BCA7
:040260009E467047FF
:040264005501000838
:040268003101000858
:04000005080001B13D
:00000001FF
