:020000040800F2
:10000000041000208D070008810700088107000800
:1000100081070008810700088107000880B400AF4D
:1000200041F20403C2F2000340F2B502C0F600023E
:100030001A6040F60C03C4F2010340F60C02C4F24D
:100040000102126842F400521A60BD4680BC70473B
:1000500080B500AF41F20403C2F2000340F29902FE
:10006000C0F600021A6041F20403C2F200031B68EA
:10007000984780BD80B500AF41F20403C2F200038F
:1000800040F2B502C0F600021A6041F20403C2F267
:1000900000031B68984780BD80B500AF41F208039C
:1000A000C2F200034FF000021A704FF0000000F09F
:1000B0005FF980BD80B500AF41F20803C2F20003D2
:1000C0004FF001021A704FF0010000F051F980BDAD
:1000D00080B400AF41F21003C2F2000340F2ED120F
:1000E000C0F600021A6040F60C03C4F2010340F6A9
:1000F0000C02C4F20102126842F480621A6040F6F7
:100100000C03C4F2010340F60C02C4F201021268AF
:1001100042F400621A6040F60C03C4F2010340F698
:100120000C02C4F20102126842F480521A60BD4609
:1001300080BC704780B582B000AF0346FB7141F2CE
:100140001003C2F2000340F2ED12C0F600021A6082
:1001500041F21003C2F200031B68FA791046984777
:1001600007F10807BD4680BD80B582B000AF0346E9
:10017000FB7141F21003C2F2000340F29D12C0F67F
:1001800000021A6041F21003C2F200031B68FA7900
:100190001046984707F10807BD4680BD80B582B07C
:1001A00000AF0346FB7141F20C03C2F200034FF0B3
:1001B00000021A70FB79002B04D14FF0000000F010
:1001C000FFF80EE0FB79042B04D14FF0040000F09F
:1001D000F7F806E0FB79022B03D14FF0020000F0A4
:1001E000EFF807F10807BD4680BD00BF80B582B0BB
:1001F00000AF0346FB7141F20C03C2F200034FF063
:1002000001021A70FB79012B04D14FF0010000F0BC
:10021000D7F80EE0FB79052B04D14FF0050000F074
:10022000CFF806E0FB79032B03D14FF0030000F079
:10023000C7F807F10807BD4680BD00BF80B400AF16
:1002400041F21403C2F2000340F20132C0F6000290
:100250001A60BD4680BC704780B500AF41F21C03F8
:10026000C2F200034FF000021A7041F25403C2F2CE
:1002700000031B68092B0ED8FFF7FCFE4FF00500AA
:10028000FFF758FF4FF00300FFF754FF4FF0000057
:10029000FFF76AFF29E041F25403C2F200031B6832
:1002A000142B0ED94FF00100FFF744FF4FF003006D
:1002B000FFF740FFFFF7CCFE4FF00400FFF754FFBD
:1002C00013E04FF00500FFF735FF4FF00100FFF797
:1002D00031FF4FF00200FFF747FFFFF7B9FE41F291
:1002E000707000F027F8FFF7C5FE41F21403C2F268
:1002F000000340F20132C0F600021A6080BD00BF68
:1003000080B500AF41F21C03C2F200034FF00102BE
:100310001A7041F21403C2F2000340F25922C0F6EF
:1003200000021A6041F21403C2F200031B689847EE
:1003300080BD00BF80B483B000AF786003E07B680D
:1003400003F1FF337B607B68002BF8D107F10C07CA
:10035000BD4680BC704700BF80B400AF40F60803C4
:10036000C4F201031B68DBB21846BD4680BC70476F
:1003700080B483B000AF78607B68012B0CD140F66D
:100380000C03C4F2010340F60C02C4F2010212682D
:1003900042F400521A600EE07B68002B0BD140F64D
:1003A0000C03C4F2010340F60C02C4F2010212680D
:1003B00022F400521A6007F10C07BD4680BC70475A
:1003C00080B483B000AF0346FB71FB79002B0CD1E6
:1003D00040F60C03C4F2010340F60C02C4F2010221
:1003E000126822F480621A604EE0FB79012B0CD176
:1003F00040F60C03C4F2010340F60C02C4F2010201
:10040000126842F480621A603EE0FB79022B0CD144
:1004100040F60C03C4F2010340F60C02C4F20102E0
:10042000126822F400621A602EE0FB79032B0CD1D3
:1004300040F60C03C4F2010340F60C02C4F20102C0
:10044000126842F400621A601EE0FB79042B0CD1A2
:1004500040F60C03C4F2010340F60C02C4F20102A0
:10046000126822F480521A600EE0FB79052B0BD142
:1004700040F60C03C4F2010340F60C02C4F2010280
:10048000126842F480521A6007F10C07BD4680BC26
:10049000704700BF80B400AF41F21803C4F20203FA
:1004A00041F21802C4F20202126842F004021A6019
:1004B0004FF40063C4F201034FF40062C4F201027E
:1004C000126822F470021A604FF40063C4F2010350
:1004D0004FF40062C4F2010212681A6040F604038D
:1004E000C4F2010340F60402C4F20102126822F4CD
:1004F0007F0222F47F421A6040F60403C4F2010333
:1005000040F60402C4F20102126842F022321A607C
:10051000BD4680BC704700BF80B485B000AFF860B6
:10052000B9607A60FB68BA681A60FB68BA685A609A
:10053000FB68BA689A60FB684FF00002DA60FB68FB
:100540007A681A6141F22003C2F2000340F2A55218
:10055000C0F600021A6007F11407BD4680BC704760
:1005600080B582B000AF786041F22403C2F200038C
:100570004FF000021A7040F20003C2F200031A6842
:1005800007F104031046194600F044F841F2240331
:10059000C2F200034FF001021A7007F10807BD46CE
:1005A00080BD00BF80B582B000AF786041F2240307
:1005B000C2F200034FF001021A7040F20003C2F2CF
:1005C00000031B68DA6840F20003C2F200031B68F4
:1005D0001B699A4210D041F22003C2F2000340F29C
:1005E0006152C0F600021A6041F22003C2F2000319
:1005F0001B687868984708E041F22003C2F20003C4
:1006000040F2A552C0F600021A6007F10807BD4685
:1006100080BD00BF80B483B000AF786039607B6874
:10062000DA687B681B699A4202D14FF0020322E02C
:100630007B685B683A6812681A607B68DB6803F164
:1006400001027B68DA607B685A687B6819687B689E
:100650001B694FEA0313CB189A4204D17B685A688E
:100660007B681A6005E07B685B6803F104027B68C5
:100670005A604FF00003184607F10C07BD4680BCD6
:10068000704700BF80B500AFFFF704FF00F030F8FF
:10069000FFF71EFDFFF7C2FC40F20003C2F20003A9
:1006A0001B68184641F23C01C2F200014FF00502FE
:1006B000FFF732FFFFF7C2FD80BD00BF80B500AF7E
:1006C000FFF7E0FF41F25803C2F200031B689847AE
:1006D0004FF4FA70FFF72EFE41F21403C2F200034A
:1006E0001B6898474FF4FA70FFF724FEEAE700BF53
:1006F00080B400AF41F25803C2F2000340F24D72E1
:10070000C0F600021A60BD4680BC704780B500AFDD
:1007100041F25003C2F200034FF000021A70FFF7DB
:100720001BFE024641F25403C2F200031A604FF46A
:100730007A70FFF7FFFD41F25803C2F2000340F266
:100740004D72C0F600021A6080BD00BF80B500AFD8
:1007500041F25003C2F200034FF001021A7041F25D
:100760005803C2F2000340F20D72C0F600021A6094
:1007700041F25803C2F200031B68984780BD00BFD6
:1007800080B500AF00F002F880BD00BF80B586B034
:1007900000AF40F20402C2F2000240F20003C2F2D3
:1007A0000003D31ABB6040F20003C2F200037B6176
:1007B00040F63C03C0F600033B614FF00003FB60D2
:1007C0000FE03B691A787B691A707B6903F10103BA
:1007D0007B613B6903F101033B61FB6803F10103AA
:1007E000FB60FA68BB689A42EBD340F20402C2F2A3
:1007F000000240F20403C2F20003D31A7B6040F20D
:100800000403C2F200037B614FF00003FB600BE0C6
:100810007B694FF000021A707B6903F101037B6171
:10082000FB6803F10103FB60FA687B689A42EFD32F
:0C083000FFF744FF07F11807BD4680BD2C
:04083C002810002060
:0400000508000000EF
:00000001FF
